{
  "contractName": "Blog",
  "abi": [
    {
      "constant": true,
      "inputs": [],
      "name": "postCreationCost",
      "outputs": [
        {
          "internalType": "uint256",
          "name": "",
          "type": "uint256"
        }
      ],
      "payable": false,
      "stateMutability": "view",
      "type": "function"
    },
    {
      "constant": true,
      "inputs": [
        {
          "internalType": "uint256",
          "name": "",
          "type": "uint256"
        }
      ],
      "name": "submissions",
      "outputs": [
        {
          "internalType": "address payable",
          "name": "writer",
          "type": "address"
        },
        {
          "internalType": "string",
          "name": "title",
          "type": "string"
        },
        {
          "internalType": "string",
          "name": "content",
          "type": "string"
        },
        {
          "internalType": "uint256",
          "name": "publishingDate",
          "type": "uint256"
        },
        {
          "internalType": "uint256",
          "name": "parentID",
          "type": "uint256"
        },
        {
          "internalType": "uint256",
          "name": "reward",
          "type": "uint256"
        }
      ],
      "payable": false,
      "stateMutability": "view",
      "type": "function"
    },
    {
      "anonymous": false,
      "inputs": [
        {
          "indexed": false,
          "internalType": "uint256",
          "name": "submissionID",
          "type": "uint256"
        }
      ],
      "name": "SubmissionEvent",
      "type": "event"
    },
    {
      "anonymous": false,
      "inputs": [
        {
          "indexed": false,
          "internalType": "uint256",
          "name": "submissionID",
          "type": "uint256"
        }
      ],
      "name": "RewardSubmission",
      "type": "event"
    },
    {
      "constant": false,
      "inputs": [
        {
          "internalType": "string",
          "name": "_title",
          "type": "string"
        },
        {
          "internalType": "string",
          "name": "_content",
          "type": "string"
        },
        {
          "internalType": "uint256",
          "name": "_parentID",
          "type": "uint256"
        }
      ],
      "name": "publishSubmission",
      "outputs": [
        {
          "internalType": "uint256",
          "name": "",
          "type": "uint256"
        }
      ],
      "payable": true,
      "stateMutability": "payable",
      "type": "function"
    },
    {
      "constant": false,
      "inputs": [
        {
          "internalType": "uint256",
          "name": "_submissionID",
          "type": "uint256"
        }
      ],
      "name": "rewardSubmission",
      "outputs": [],
      "payable": true,
      "stateMutability": "payable",
      "type": "function"
    },
    {
      "constant": false,
      "inputs": [
        {
          "internalType": "uint256",
          "name": "_amount",
          "type": "uint256"
        }
      ],
      "name": "withdraw",
      "outputs": [],
      "payable": false,
      "stateMutability": "nonpayable",
      "type": "function"
    },
    {
      "constant": true,
      "inputs": [],
      "name": "getContractBalance",
      "outputs": [
        {
          "internalType": "uint256",
          "name": "",
          "type": "uint256"
        }
      ],
      "payable": false,
      "stateMutability": "view",
      "type": "function"
    },
    {
      "constant": false,
      "inputs": [
        {
          "internalType": "uint256",
          "name": "_newValue",
          "type": "uint256"
        }
      ],
      "name": "changePostCreationCost",
      "outputs": [],
      "payable": false,
      "stateMutability": "nonpayable",
      "type": "function"
    },
    {
      "constant": true,
      "inputs": [],
      "name": "getAllSubmissions",
      "outputs": [
        {
          "components": [
            {
              "internalType": "address payable",
              "name": "writer",
              "type": "address"
            },
            {
              "internalType": "string",
              "name": "title",
              "type": "string"
            },
            {
              "internalType": "string",
              "name": "content",
              "type": "string"
            },
            {
              "internalType": "uint256",
              "name": "publishingDate",
              "type": "uint256"
            },
            {
              "internalType": "uint256",
              "name": "parentID",
              "type": "uint256"
            },
            {
              "internalType": "uint256",
              "name": "reward",
              "type": "uint256"
            }
          ],
          "internalType": "struct Blog.Submission[]",
          "name": "",
          "type": "tuple[]"
        }
      ],
      "payable": false,
      "stateMutability": "view",
      "type": "function"
    },
    {
      "constant": true,
      "inputs": [],
      "name": "getSubmissionsLength",
      "outputs": [
        {
          "internalType": "uint256",
          "name": "",
          "type": "uint256"
        }
      ],
      "payable": false,
      "stateMutability": "view",
      "type": "function"
    },
    {
      "constant": true,
      "inputs": [
        {
          "internalType": "uint256",
          "name": "_submissionID",
          "type": "uint256"
        }
      ],
      "name": "getSubmission",
      "outputs": [
        {
          "components": [
            {
              "internalType": "address payable",
              "name": "writer",
              "type": "address"
            },
            {
              "internalType": "string",
              "name": "title",
              "type": "string"
            },
            {
              "internalType": "string",
              "name": "content",
              "type": "string"
            },
            {
              "internalType": "uint256",
              "name": "publishingDate",
              "type": "uint256"
            },
            {
              "internalType": "uint256",
              "name": "parentID",
              "type": "uint256"
            },
            {
              "internalType": "uint256",
              "name": "reward",
              "type": "uint256"
            }
          ],
          "internalType": "struct Blog.Submission",
          "name": "",
          "type": "tuple"
        }
      ],
      "payable": false,
      "stateMutability": "view",
      "type": "function"
    }
  ],
  "bytecode": "0x608060405233600160006101000a81548173ffffffffffffffffffffffffffffffffffffffff021916908373ffffffffffffffffffffffffffffffffffffffff16021790555066b1a2bc2ec5000060025534801561005c57600080fd5b5061184f8061006c6000396000f3fe6080604052600436106100915760003560e01c80638d75311d116100595780638d75311d14610182578063ab0dd3b0146101ad578063ad73349e146101d8578063ba78ff781461021a578063eda3b69d1461023657610091565b80632b2ff438146100965780632e1a7d4d146100c65780633e8686cc146100ef57806362bd983a1461012c5780636f9fb98a14610157575b600080fd5b6100b060048036036100ab9190810190610fdc565b61025f565b6040516100bd919061168c565b60405180910390f35b3480156100d257600080fd5b506100ed60048036036100e8919081019061105b565b610459565b005b3480156100fb57600080fd5b506101166004803603610111919081019061105b565b6105ee565b604051610123919061166a565b60405180910390f35b34801561013857600080fd5b50610141610832565b60405161014e9190611588565b60405180910390f35b34801561016357600080fd5b5061016c610a49565b604051610179919061168c565b60405180910390f35b34801561018e57600080fd5b50610197610af8565b6040516101a4919061168c565b60405180910390f35b3480156101b957600080fd5b506101c2610b04565b6040516101cf919061168c565b60405180910390f35b3480156101e457600080fd5b506101ff60048036036101fa919081019061105b565b610b0a565b60405161021196959493929190611519565b60405180910390f35b610234600480360361022f919081019061105b565b610ca3565b005b34801561024257600080fd5b5061025d6004803603610258919081019061105b565b610de8565b005b60006002543410156102a6576040517f08c379a000000000000000000000000000000000000000000000000000000000815260040161029d906115ca565b60405180910390fd5b600082146102f65760008054905082106102f5576040517f08c379a00000000000000000000000000000000000000000000000000000000081526004016102ec9061160a565b60405180910390fd5b5b6102fe610e82565b6040518060c001604052803373ffffffffffffffffffffffffffffffffffffffff16815260200186815260200185815260200142815260200184815260200160008152509050600080829080600181540180825580915050906001820390600052602060002090600602016000909192909190915060008201518160000160006101000a81548173ffffffffffffffffffffffffffffffffffffffff021916908373ffffffffffffffffffffffffffffffffffffffff16021790555060208201518160010190805190602001906103d6929190610ece565b5060408201518160020190805190602001906103f3929190610ece565b50606082015181600301556080820151816004015560a08201518160050155505090507f705f97ee415a7e06069321233a1a131e1d66a7bec37f49c7c211fb2f012010a181604051610445919061168c565b60405180910390a180925050509392505050565b600160009054906101000a900473ffffffffffffffffffffffffffffffffffffffff1673ffffffffffffffffffffffffffffffffffffffff163373ffffffffffffffffffffffffffffffffffffffff16146104e9576040517f08c379a00000000000000000000000000000000000000000000000000000000081526004016104e0906115aa565b60405180910390fd5b6000670de0b6b3a7640000820211610536576040517f08c379a000000000000000000000000000000000000000000000000000000000815260040161052d9061164a565b60405180910390fd5b670de0b6b3a76400003073ffffffffffffffffffffffffffffffffffffffff163102670de0b6b3a7640000820211156105a4576040517f08c379a000000000000000000000000000000000000000000000000000000000815260040161059b9061162a565b60405180910390fd5b3373ffffffffffffffffffffffffffffffffffffffff166108fc829081150290604051600060405180830381858888f193505050501580156105ea573d6000803e3d6000fd5b5050565b6105f6610e82565b60008211801561060b57506000805490508211155b61064a576040517f08c379a0000000000000000000000000000000000000000000000000000000008152600401610641906115ea565b60405180910390fd5b6000600183038154811061065a57fe5b90600052602060002090600602016040518060c00160405290816000820160009054906101000a900473ffffffffffffffffffffffffffffffffffffffff1673ffffffffffffffffffffffffffffffffffffffff1673ffffffffffffffffffffffffffffffffffffffff168152602001600182018054600181600116156101000203166002900480601f0160208091040260200160405190810160405280929190818152602001828054600181600116156101000203166002900480156107625780601f1061073757610100808354040283529160200191610762565b820191906000526020600020905b81548152906001019060200180831161074557829003601f168201915b50505050508152602001600282018054600181600116156101000203166002900480601f0160208091040260200160405190810160405280929190818152602001828054600181600116156101000203166002900480156108045780601f106107d957610100808354040283529160200191610804565b820191906000526020600020905b8154815290600101906020018083116107e757829003601f168201915b5050505050815260200160038201548152602001600482015481526020016005820154815250509050919050565b60606000805480602002602001604051908101604052809291908181526020016000905b82821015610a4057838290600052602060002090600602016040518060c00160405290816000820160009054906101000a900473ffffffffffffffffffffffffffffffffffffffff1673ffffffffffffffffffffffffffffffffffffffff1673ffffffffffffffffffffffffffffffffffffffff168152602001600182018054600181600116156101000203166002900480601f0160208091040260200160405190810160405280929190818152602001828054600181600116156101000203166002900480156109685780601f1061093d57610100808354040283529160200191610968565b820191906000526020600020905b81548152906001019060200180831161094b57829003601f168201915b50505050508152602001600282018054600181600116156101000203166002900480601f016020809104026020016040519081016040528092919081815260200182805460018160011615610100020316600290048015610a0a5780601f106109df57610100808354040283529160200191610a0a565b820191906000526020600020905b8154815290600101906020018083116109ed57829003601f168201915b50505050508152602001600382015481526020016004820154815260200160058201548152505081526020019060010190610856565b50505050905090565b6000600160009054906101000a900473ffffffffffffffffffffffffffffffffffffffff1673ffffffffffffffffffffffffffffffffffffffff163373ffffffffffffffffffffffffffffffffffffffff1614610adb576040517f08c379a0000000000000000000000000000000000000000000000000000000008152600401610ad2906115aa565b60405180910390fd5b3073ffffffffffffffffffffffffffffffffffffffff1631905090565b60008080549050905090565b60025481565b60008181548110610b1757fe5b90600052602060002090600602016000915090508060000160009054906101000a900473ffffffffffffffffffffffffffffffffffffffff1690806001018054600181600116156101000203166002900480601f016020809104026020016040519081016040528092919081815260200182805460018160011615610100020316600290048015610be95780601f10610bbe57610100808354040283529160200191610be9565b820191906000526020600020905b815481529060010190602001808311610bcc57829003601f168201915b505050505090806002018054600181600116156101000203166002900480601f016020809104026020016040519081016040528092919081815260200182805460018160011615610100020316600290048015610c875780601f10610c5c57610100808354040283529160200191610c87565b820191906000526020600020905b815481529060010190602001808311610c6a57829003601f168201915b5050505050908060030154908060040154908060050154905086565b600081118015610cb857506000805490508111155b610cf7576040517f08c379a0000000000000000000000000000000000000000000000000000000008152600401610cee906115ea565b60405180910390fd5b60006001820381548110610d0757fe5b906000526020600020906006020160000160009054906101000a900473ffffffffffffffffffffffffffffffffffffffff1673ffffffffffffffffffffffffffffffffffffffff166108fc349081150290604051600060405180830381858888f19350505050158015610d7e573d6000803e3d6000fd5b503460006001830381548110610d9057fe5b9060005260206000209060060201600501600082825401925050819055507f499ce1582f414411f628aa191499b726f23f58257dcca96017bfb65b587427f481604051610ddd919061168c565b60405180910390a150565b600160009054906101000a900473ffffffffffffffffffffffffffffffffffffffff1673ffffffffffffffffffffffffffffffffffffffff163373ffffffffffffffffffffffffffffffffffffffff1614610e78576040517f08c379a0000000000000000000000000000000000000000000000000000000008152600401610e6f906115aa565b60405180910390fd5b8060028190555050565b6040518060c00160405280600073ffffffffffffffffffffffffffffffffffffffff16815260200160608152602001606081526020016000815260200160008152602001600081525090565b828054600181600116156101000203166002900490600052602060002090601f016020900481019282601f10610f0f57805160ff1916838001178555610f3d565b82800160010185558215610f3d579182015b82811115610f3c578251825591602001919060010190610f21565b5b509050610f4a9190610f4e565b5090565b610f7091905b80821115610f6c576000816000905550600101610f54565b5090565b90565b600082601f830112610f8457600080fd5b8135610f97610f92826116d4565b6116a7565b91508082526020830160208301858383011115610fb357600080fd5b610fbe8382846117a2565b50505092915050565b600081359050610fd6816117f5565b92915050565b600080600060608486031215610ff157600080fd5b600084013567ffffffffffffffff81111561100b57600080fd5b61101786828701610f73565b935050602084013567ffffffffffffffff81111561103457600080fd5b61104086828701610f73565b925050604061105186828701610fc7565b9150509250925092565b60006020828403121561106d57600080fd5b600061107b84828501610fc7565b91505092915050565b6000611090838361146b565b905092915050565b6110a181611766565b82525050565b6110b081611766565b82525050565b60006110c182611710565b6110cb8185611733565b9350836020820285016110dd85611700565b8060005b8581101561111957848403895281516110fa8582611084565b945061110583611726565b925060208a019950506001810190506110e1565b50829750879550505050505092915050565b60006111368261171b565b6111408185611744565b93506111508185602086016117b1565b611159816117e4565b840191505092915050565b600061116f8261171b565b6111798185611755565b93506111898185602086016117b1565b611192816117e4565b840191505092915050565b60006111aa602183611755565b91507f4f6e6c79206f776e65722063616e2063616c6c20746869732066756e6374696f60008301527f6e000000000000000000000000000000000000000000000000000000000000006020830152604082019050919050565b6000611210602083611755565b91507f506f7374206372656174696f6e20636f737420697320302e30352065746865726000830152602082019050919050565b6000611250601883611755565b91507f5375626d697373696f6e20646f65736e277420657869737400000000000000006000830152602082019050919050565b6000611290602883611755565b91507f506172656e7420494420646f65736e277420706f696e7420746f20612073756260008301527f6d697373696f6e2e0000000000000000000000000000000000000000000000006020830152604082019050919050565b60006112f6602f83611755565b91507f436f6e74726163742062616c616e6365206973206c6f7765722074686174207260008301527f657175657374656420616d6f756e7400000000000000000000000000000000006020830152604082019050919050565b600061135c604a83611755565b91507f596f75722065697468657220747279696e6720746f206f766572666c6f77206d60008301527f65206f7220796f752077616e7420746f2077697468647261772030206574682e60208301527f204e6f7420636f6f6c2e000000000000000000000000000000000000000000006040830152606082019050919050565b600060c0830160008301516113f36000860182611098565b506020830151848203602086015261140b828261112b565b91505060408301518482036040860152611425828261112b565b915050606083015161143a60608601826114fb565b50608083015161144d60808601826114fb565b5060a083015161146060a08601826114fb565b508091505092915050565b600060c0830160008301516114836000860182611098565b506020830151848203602086015261149b828261112b565b915050604083015184820360408601526114b5828261112b565b91505060608301516114ca60608601826114fb565b5060808301516114dd60808601826114fb565b5060a08301516114f060a08601826114fb565b508091505092915050565b61150481611798565b82525050565b61151381611798565b82525050565b600060c08201905061152e60008301896110a7565b81810360208301526115408188611164565b905081810360408301526115548187611164565b9050611563606083018661150a565b611570608083018561150a565b61157d60a083018461150a565b979650505050505050565b600060208201905081810360008301526115a281846110b6565b905092915050565b600060208201905081810360008301526115c38161119d565b9050919050565b600060208201905081810360008301526115e381611203565b9050919050565b6000602082019050818103600083015261160381611243565b9050919050565b6000602082019050818103600083015261162381611283565b9050919050565b60006020820190508181036000830152611643816112e9565b9050919050565b600060208201905081810360008301526116638161134f565b9050919050565b6000602082019050818103600083015261168481846113db565b905092915050565b60006020820190506116a1600083018461150a565b92915050565b6000604051905081810181811067ffffffffffffffff821117156116ca57600080fd5b8060405250919050565b600067ffffffffffffffff8211156116eb57600080fd5b601f19601f8301169050602081019050919050565b6000819050602082019050919050565b600081519050919050565b600081519050919050565b6000602082019050919050565b600082825260208201905092915050565b600082825260208201905092915050565b600082825260208201905092915050565b600061177182611778565b9050919050565b600073ffffffffffffffffffffffffffffffffffffffff82169050919050565b6000819050919050565b82818337600083830152505050565b60005b838110156117cf5780820151818401526020810190506117b4565b838111156117de576000848401525b50505050565b6000601f19601f8301169050919050565b6117fe81611798565b811461180957600080fd5b5056fea365627a7a7231582083529909e2e9d11d5eccfce19c6e735d30b4559952daece6a7e83263fffee5956c6578706572696d656e74616cf564736f6c634300050b0040",
  "source": "pragma solidity ^0.5.11;\npragma experimental ABIEncoderV2;\n// Users can publish articles\n// Users can comment on articles\n// Users can like/dislike articles/comments\n// Users can pay for their article to be featured\n// Each post creation costs 0.05 ether\ncontract Blog {\n\n  struct Submission{\n    address payable writer;\n    string title;\n    string content;\n    uint publishingDate;\n    uint parentID;\n    uint reward;\n  }\n\n  Submission[] public submissions;\n\n  address owner = msg.sender;\n\n  uint public postCreationCost = 0.05 ether;\n\n  modifier ownerOnly{\n      require(msg.sender == owner,\"Only owner can call this function\");\n      _;\n  }\n\n  event SubmissionEvent(uint submissionID);\n  event RewardSubmission(uint submissionID);\n    \n  function publishSubmission(string memory _title,string memory _content, uint _parentID) public payable returns(uint) {\n    require(msg.value>=postCreationCost,\"Post creation cost is 0.05 ether\");\n    if(_parentID != 0) // 0 means no parent\n    require(_parentID<submissions.length,\"Parent ID doesn't point to a submission.\");\n    Submission memory newSubmission = Submission(msg.sender,_title,_content,now,_parentID,0);\n    uint submissionID = submissions.push(newSubmission);\n    emit SubmissionEvent(submissionID);\n    return submissionID;\n  }\n\n  function rewardSubmission(uint _submissionID) public payable {\n    require(_submissionID>0 && _submissionID<=submissions.length,\"Submission doesn't exist\");\n    submissions[_submissionID-1].writer.transfer(msg.value);\n    submissions[_submissionID-1].reward += msg.value;\n    emit RewardSubmission(_submissionID);\n  }\n\n  function withdraw(uint _amount) public ownerOnly {\n    require(_amount*(1 ether)>0,\"Your either trying to overflow me or you want to withdraw 0 eth. Not cool.\");\n    require(_amount*(1 ether)<=address(this).balance*(1 ether),\"Contract balance is lower that requested amount\");\n    msg.sender.transfer(_amount);\n  }\n\n  function getContractBalance() public view ownerOnly returns (uint256) {\n    return address(this).balance;\n  }\n    \n  function changePostCreationCost(uint _newValue) public ownerOnly {\n        postCreationCost = _newValue;\n  }\n\n  function getAllSubmissions() public view returns(Submission[] memory){\n    return submissions;\n  }\n\n  function getSubmissionsLength() public view returns (uint){\n    return submissions.length;\n  }\n\n  function getSubmission(uint _submissionID) public view returns(Submission memory){\n    require(_submissionID>0 && _submissionID<=submissions.length,\"Submission doesn't exist\");\n    return submissions[_submissionID-1];\n  }\n}                                                                                                         ",
  "sourcePath": "/home/workstation/eth-projects/blog-dapp-ethereum/contracts/Blog.sol",
  "compiler": {
    "name": "solc",
    "version": "0.5.11+commit.c082d0b4.Emscripten.clang"
  },
  "schemaVersion": "3.0.14",
  "updatedAt": "2019-09-10T18:35:01.049Z",
  "devdoc": {
    "methods": {}
  },
  "userdoc": {
    "methods": {}
  }
}