{
  "contractName": "Blog",
  "abi": [
    {
      "constant": true,
      "inputs": [],
      "name": "postCreationCost",
      "outputs": [
        {
          "internalType": "uint256",
          "name": "",
          "type": "uint256"
        }
      ],
      "payable": false,
      "stateMutability": "view",
      "type": "function"
    },
    {
      "constant": true,
      "inputs": [
        {
          "internalType": "uint256",
          "name": "",
          "type": "uint256"
        }
      ],
      "name": "submissions",
      "outputs": [
        {
          "internalType": "address payable",
          "name": "writer",
          "type": "address"
        },
        {
          "internalType": "string",
          "name": "title",
          "type": "string"
        },
        {
          "internalType": "string",
          "name": "content",
          "type": "string"
        },
        {
          "internalType": "uint256",
          "name": "publishingDate",
          "type": "uint256"
        },
        {
          "internalType": "uint256",
          "name": "parentID",
          "type": "uint256"
        },
        {
          "internalType": "uint256",
          "name": "reward",
          "type": "uint256"
        }
      ],
      "payable": false,
      "stateMutability": "view",
      "type": "function"
    },
    {
      "anonymous": false,
      "inputs": [
        {
          "indexed": false,
          "internalType": "uint256",
          "name": "submissionID",
          "type": "uint256"
        }
      ],
      "name": "SubmissionEvent",
      "type": "event"
    },
    {
      "constant": false,
      "inputs": [
        {
          "internalType": "string",
          "name": "_title",
          "type": "string"
        },
        {
          "internalType": "string",
          "name": "_content",
          "type": "string"
        },
        {
          "internalType": "uint256",
          "name": "_parentID",
          "type": "uint256"
        }
      ],
      "name": "publishSubmission",
      "outputs": [
        {
          "internalType": "uint256",
          "name": "",
          "type": "uint256"
        }
      ],
      "payable": true,
      "stateMutability": "payable",
      "type": "function"
    },
    {
      "constant": false,
      "inputs": [
        {
          "internalType": "uint256",
          "name": "_submissionID",
          "type": "uint256"
        }
      ],
      "name": "rewardSubmission",
      "outputs": [],
      "payable": true,
      "stateMutability": "payable",
      "type": "function"
    },
    {
      "constant": false,
      "inputs": [
        {
          "internalType": "uint256",
          "name": "_amount",
          "type": "uint256"
        }
      ],
      "name": "withdraw",
      "outputs": [],
      "payable": false,
      "stateMutability": "nonpayable",
      "type": "function"
    },
    {
      "constant": true,
      "inputs": [],
      "name": "getContractBalance",
      "outputs": [
        {
          "internalType": "uint256",
          "name": "",
          "type": "uint256"
        }
      ],
      "payable": false,
      "stateMutability": "view",
      "type": "function"
    },
    {
      "constant": false,
      "inputs": [
        {
          "internalType": "uint256",
          "name": "_newValue",
          "type": "uint256"
        }
      ],
      "name": "changePostCreationCost",
      "outputs": [],
      "payable": false,
      "stateMutability": "nonpayable",
      "type": "function"
    },
    {
      "constant": true,
      "inputs": [],
      "name": "getAllSubmissions",
      "outputs": [
        {
          "components": [
            {
              "internalType": "address payable",
              "name": "writer",
              "type": "address"
            },
            {
              "internalType": "string",
              "name": "title",
              "type": "string"
            },
            {
              "internalType": "string",
              "name": "content",
              "type": "string"
            },
            {
              "internalType": "uint256",
              "name": "publishingDate",
              "type": "uint256"
            },
            {
              "internalType": "uint256",
              "name": "parentID",
              "type": "uint256"
            },
            {
              "internalType": "uint256",
              "name": "reward",
              "type": "uint256"
            }
          ],
          "internalType": "struct Blog.Submission[]",
          "name": "",
          "type": "tuple[]"
        }
      ],
      "payable": false,
      "stateMutability": "view",
      "type": "function"
    },
    {
      "constant": true,
      "inputs": [],
      "name": "getSubmissionsLength",
      "outputs": [
        {
          "internalType": "uint256",
          "name": "",
          "type": "uint256"
        }
      ],
      "payable": false,
      "stateMutability": "view",
      "type": "function"
    },
    {
      "constant": true,
      "inputs": [
        {
          "internalType": "uint256",
          "name": "_submissionID",
          "type": "uint256"
        }
      ],
      "name": "getSubmission",
      "outputs": [
        {
          "components": [
            {
              "internalType": "address payable",
              "name": "writer",
              "type": "address"
            },
            {
              "internalType": "string",
              "name": "title",
              "type": "string"
            },
            {
              "internalType": "string",
              "name": "content",
              "type": "string"
            },
            {
              "internalType": "uint256",
              "name": "publishingDate",
              "type": "uint256"
            },
            {
              "internalType": "uint256",
              "name": "parentID",
              "type": "uint256"
            },
            {
              "internalType": "uint256",
              "name": "reward",
              "type": "uint256"
            }
          ],
          "internalType": "struct Blog.Submission",
          "name": "",
          "type": "tuple"
        }
      ],
      "payable": false,
      "stateMutability": "view",
      "type": "function"
    }
  ],
  "bytecode": "0x608060405233600160006101000a81548173ffffffffffffffffffffffffffffffffffffffff021916908373ffffffffffffffffffffffffffffffffffffffff16021790555066b1a2bc2ec5000060025534801561005c57600080fd5b506118188061006c6000396000f3fe6080604052600436106100915760003560e01c80638d75311d116100595780638d75311d14610182578063ab0dd3b0146101ad578063ad73349e146101d8578063ba78ff781461021a578063eda3b69d1461023657610091565b80632b2ff438146100965780632e1a7d4d146100c65780633e8686cc146100ef57806362bd983a1461012c5780636f9fb98a14610157575b600080fd5b6100b060048036036100ab9190810190610fa5565b61025f565b6040516100bd9190611655565b60405180910390f35b3480156100d257600080fd5b506100ed60048036036100e89190810190611024565b610459565b005b3480156100fb57600080fd5b5061011660048036036101119190810190611024565b6105ee565b6040516101239190611633565b60405180910390f35b34801561013857600080fd5b50610141610832565b60405161014e9190611551565b60405180910390f35b34801561016357600080fd5b5061016c610a49565b6040516101799190611655565b60405180910390f35b34801561018e57600080fd5b50610197610af8565b6040516101a49190611655565b60405180910390f35b3480156101b957600080fd5b506101c2610b04565b6040516101cf9190611655565b60405180910390f35b3480156101e457600080fd5b506101ff60048036036101fa9190810190611024565b610b0a565b604051610211969594939291906114e2565b60405180910390f35b610234600480360361022f9190810190611024565b610ca3565b005b34801561024257600080fd5b5061025d60048036036102589190810190611024565b610db1565b005b60006002543410156102a6576040517f08c379a000000000000000000000000000000000000000000000000000000000815260040161029d90611593565b60405180910390fd5b600082146102f65760008054905082106102f5576040517f08c379a00000000000000000000000000000000000000000000000000000000081526004016102ec906115d3565b60405180910390fd5b5b6102fe610e4b565b6040518060c001604052803373ffffffffffffffffffffffffffffffffffffffff16815260200186815260200185815260200142815260200184815260200160008152509050600080829080600181540180825580915050906001820390600052602060002090600602016000909192909190915060008201518160000160006101000a81548173ffffffffffffffffffffffffffffffffffffffff021916908373ffffffffffffffffffffffffffffffffffffffff16021790555060208201518160010190805190602001906103d6929190610e97565b5060408201518160020190805190602001906103f3929190610e97565b50606082015181600301556080820151816004015560a08201518160050155505090507f705f97ee415a7e06069321233a1a131e1d66a7bec37f49c7c211fb2f012010a1816040516104459190611655565b60405180910390a180925050509392505050565b600160009054906101000a900473ffffffffffffffffffffffffffffffffffffffff1673ffffffffffffffffffffffffffffffffffffffff163373ffffffffffffffffffffffffffffffffffffffff16146104e9576040517f08c379a00000000000000000000000000000000000000000000000000000000081526004016104e090611573565b60405180910390fd5b6000670de0b6b3a7640000820211610536576040517f08c379a000000000000000000000000000000000000000000000000000000000815260040161052d90611613565b60405180910390fd5b670de0b6b3a76400003073ffffffffffffffffffffffffffffffffffffffff163102670de0b6b3a7640000820211156105a4576040517f08c379a000000000000000000000000000000000000000000000000000000000815260040161059b906115f3565b60405180910390fd5b3373ffffffffffffffffffffffffffffffffffffffff166108fc829081150290604051600060405180830381858888f193505050501580156105ea573d6000803e3d6000fd5b5050565b6105f6610e4b565b60008211801561060b57506000805490508211155b61064a576040517f08c379a0000000000000000000000000000000000000000000000000000000008152600401610641906115b3565b60405180910390fd5b6000600183038154811061065a57fe5b90600052602060002090600602016040518060c00160405290816000820160009054906101000a900473ffffffffffffffffffffffffffffffffffffffff1673ffffffffffffffffffffffffffffffffffffffff1673ffffffffffffffffffffffffffffffffffffffff168152602001600182018054600181600116156101000203166002900480601f0160208091040260200160405190810160405280929190818152602001828054600181600116156101000203166002900480156107625780601f1061073757610100808354040283529160200191610762565b820191906000526020600020905b81548152906001019060200180831161074557829003601f168201915b50505050508152602001600282018054600181600116156101000203166002900480601f0160208091040260200160405190810160405280929190818152602001828054600181600116156101000203166002900480156108045780601f106107d957610100808354040283529160200191610804565b820191906000526020600020905b8154815290600101906020018083116107e757829003601f168201915b5050505050815260200160038201548152602001600482015481526020016005820154815250509050919050565b60606000805480602002602001604051908101604052809291908181526020016000905b82821015610a4057838290600052602060002090600602016040518060c00160405290816000820160009054906101000a900473ffffffffffffffffffffffffffffffffffffffff1673ffffffffffffffffffffffffffffffffffffffff1673ffffffffffffffffffffffffffffffffffffffff168152602001600182018054600181600116156101000203166002900480601f0160208091040260200160405190810160405280929190818152602001828054600181600116156101000203166002900480156109685780601f1061093d57610100808354040283529160200191610968565b820191906000526020600020905b81548152906001019060200180831161094b57829003601f168201915b50505050508152602001600282018054600181600116156101000203166002900480601f016020809104026020016040519081016040528092919081815260200182805460018160011615610100020316600290048015610a0a5780601f106109df57610100808354040283529160200191610a0a565b820191906000526020600020905b8154815290600101906020018083116109ed57829003601f168201915b50505050508152602001600382015481526020016004820154815260200160058201548152505081526020019060010190610856565b50505050905090565b6000600160009054906101000a900473ffffffffffffffffffffffffffffffffffffffff1673ffffffffffffffffffffffffffffffffffffffff163373ffffffffffffffffffffffffffffffffffffffff1614610adb576040517f08c379a0000000000000000000000000000000000000000000000000000000008152600401610ad290611573565b60405180910390fd5b3073ffffffffffffffffffffffffffffffffffffffff1631905090565b60008080549050905090565b60025481565b60008181548110610b1757fe5b90600052602060002090600602016000915090508060000160009054906101000a900473ffffffffffffffffffffffffffffffffffffffff1690806001018054600181600116156101000203166002900480601f016020809104026020016040519081016040528092919081815260200182805460018160011615610100020316600290048015610be95780601f10610bbe57610100808354040283529160200191610be9565b820191906000526020600020905b815481529060010190602001808311610bcc57829003601f168201915b505050505090806002018054600181600116156101000203166002900480601f016020809104026020016040519081016040528092919081815260200182805460018160011615610100020316600290048015610c875780601f10610c5c57610100808354040283529160200191610c87565b820191906000526020600020905b815481529060010190602001808311610c6a57829003601f168201915b5050505050908060030154908060040154908060050154905086565b600081118015610cb857506000805490508111155b610cf7576040517f08c379a0000000000000000000000000000000000000000000000000000000008152600401610cee906115b3565b60405180910390fd5b60006001820381548110610d0757fe5b906000526020600020906006020160000160009054906101000a900473ffffffffffffffffffffffffffffffffffffffff1673ffffffffffffffffffffffffffffffffffffffff166108fc349081150290604051600060405180830381858888f19350505050158015610d7e573d6000803e3d6000fd5b503460006001830381548110610d9057fe5b90600052602060002090600602016005016000828254019250508190555050565b600160009054906101000a900473ffffffffffffffffffffffffffffffffffffffff1673ffffffffffffffffffffffffffffffffffffffff163373ffffffffffffffffffffffffffffffffffffffff1614610e41576040517f08c379a0000000000000000000000000000000000000000000000000000000008152600401610e3890611573565b60405180910390fd5b8060028190555050565b6040518060c00160405280600073ffffffffffffffffffffffffffffffffffffffff16815260200160608152602001606081526020016000815260200160008152602001600081525090565b828054600181600116156101000203166002900490600052602060002090601f016020900481019282601f10610ed857805160ff1916838001178555610f06565b82800160010185558215610f06579182015b82811115610f05578251825591602001919060010190610eea565b5b509050610f139190610f17565b5090565b610f3991905b80821115610f35576000816000905550600101610f1d565b5090565b90565b600082601f830112610f4d57600080fd5b8135610f60610f5b8261169d565b611670565b91508082526020830160208301858383011115610f7c57600080fd5b610f8783828461176b565b50505092915050565b600081359050610f9f816117be565b92915050565b600080600060608486031215610fba57600080fd5b600084013567ffffffffffffffff811115610fd457600080fd5b610fe086828701610f3c565b935050602084013567ffffffffffffffff811115610ffd57600080fd5b61100986828701610f3c565b925050604061101a86828701610f90565b9150509250925092565b60006020828403121561103657600080fd5b600061104484828501610f90565b91505092915050565b60006110598383611434565b905092915050565b61106a8161172f565b82525050565b6110798161172f565b82525050565b600061108a826116d9565b61109481856116fc565b9350836020820285016110a6856116c9565b8060005b858110156110e257848403895281516110c3858261104d565b94506110ce836116ef565b925060208a019950506001810190506110aa565b50829750879550505050505092915050565b60006110ff826116e4565b611109818561170d565b935061111981856020860161177a565b611122816117ad565b840191505092915050565b6000611138826116e4565b611142818561171e565b935061115281856020860161177a565b61115b816117ad565b840191505092915050565b600061117360218361171e565b91507f4f6e6c79206f776e65722063616e2063616c6c20746869732066756e6374696f60008301527f6e000000000000000000000000000000000000000000000000000000000000006020830152604082019050919050565b60006111d960208361171e565b91507f506f7374206372656174696f6e20636f737420697320302e30352065746865726000830152602082019050919050565b600061121960188361171e565b91507f5375626d697373696f6e20646f65736e277420657869737400000000000000006000830152602082019050919050565b600061125960288361171e565b91507f506172656e7420494420646f65736e277420706f696e7420746f20612073756260008301527f6d697373696f6e2e0000000000000000000000000000000000000000000000006020830152604082019050919050565b60006112bf602f8361171e565b91507f436f6e74726163742062616c616e6365206973206c6f7765722074686174207260008301527f657175657374656420616d6f756e7400000000000000000000000000000000006020830152604082019050919050565b6000611325604a8361171e565b91507f596f75722065697468657220747279696e6720746f206f766572666c6f77206d60008301527f65206f7220796f752077616e7420746f2077697468647261772030206574682e60208301527f204e6f7420636f6f6c2e000000000000000000000000000000000000000000006040830152606082019050919050565b600060c0830160008301516113bc6000860182611061565b50602083015184820360208601526113d482826110f4565b915050604083015184820360408601526113ee82826110f4565b915050606083015161140360608601826114c4565b50608083015161141660808601826114c4565b5060a083015161142960a08601826114c4565b508091505092915050565b600060c08301600083015161144c6000860182611061565b506020830151848203602086015261146482826110f4565b9150506040830151848203604086015261147e82826110f4565b915050606083015161149360608601826114c4565b5060808301516114a660808601826114c4565b5060a08301516114b960a08601826114c4565b508091505092915050565b6114cd81611761565b82525050565b6114dc81611761565b82525050565b600060c0820190506114f76000830189611070565b8181036020830152611509818861112d565b9050818103604083015261151d818761112d565b905061152c60608301866114d3565b61153960808301856114d3565b61154660a08301846114d3565b979650505050505050565b6000602082019050818103600083015261156b818461107f565b905092915050565b6000602082019050818103600083015261158c81611166565b9050919050565b600060208201905081810360008301526115ac816111cc565b9050919050565b600060208201905081810360008301526115cc8161120c565b9050919050565b600060208201905081810360008301526115ec8161124c565b9050919050565b6000602082019050818103600083015261160c816112b2565b9050919050565b6000602082019050818103600083015261162c81611318565b9050919050565b6000602082019050818103600083015261164d81846113a4565b905092915050565b600060208201905061166a60008301846114d3565b92915050565b6000604051905081810181811067ffffffffffffffff8211171561169357600080fd5b8060405250919050565b600067ffffffffffffffff8211156116b457600080fd5b601f19601f8301169050602081019050919050565b6000819050602082019050919050565b600081519050919050565b600081519050919050565b6000602082019050919050565b600082825260208201905092915050565b600082825260208201905092915050565b600082825260208201905092915050565b600061173a82611741565b9050919050565b600073ffffffffffffffffffffffffffffffffffffffff82169050919050565b6000819050919050565b82818337600083830152505050565b60005b8381101561179857808201518184015260208101905061177d565b838111156117a7576000848401525b50505050565b6000601f19601f8301169050919050565b6117c781611761565b81146117d257600080fd5b5056fea365627a7a7231582037f35a0e6bcb0c16f95d31ace8d62fba2203d652d9c9c5b62fdfa627763f48d36c6578706572696d656e74616cf564736f6c634300050b0040",
  "source": "pragma solidity ^0.5.11;\npragma experimental ABIEncoderV2;\n// Users can publish articles\n// Users can comment on articles\n// Users can like/dislike articles/comments\n// Users can pay for their article to be featured\n// Each post creation costs 0.05 ether\ncontract Blog {\n\n  struct Submission{\n    address payable writer;\n    string title;\n    string content;\n    uint publishingDate;\n    uint parentID;\n    uint reward;\n  }\n\n  Submission[] public submissions;\n\n  address owner = msg.sender;\n\n  uint public postCreationCost = 0.05 ether;\n\n  modifier ownerOnly{\n      require(msg.sender == owner,\"Only owner can call this function\");\n      _;\n  }\n\n  event SubmissionEvent(uint submissionID);\n    \n  function publishSubmission(string memory _title,string memory _content, uint _parentID) public payable returns(uint) {\n    require(msg.value>=postCreationCost,\"Post creation cost is 0.05 ether\");\n    if(_parentID != 0) // 0 means no parent\n    require(_parentID<submissions.length,\"Parent ID doesn't point to a submission.\");\n    Submission memory newSubmission = Submission(msg.sender,_title,_content,now,_parentID,0);\n    uint submissionID = submissions.push(newSubmission);\n    emit SubmissionEvent(submissionID);\n    return submissionID;\n  }\n\n  function rewardSubmission(uint _submissionID) public payable {\n    require(_submissionID>0 && _submissionID<=submissions.length,\"Submission doesn't exist\");\n    submissions[_submissionID-1].writer.transfer(msg.value);\n    submissions[_submissionID-1].reward += msg.value;\n  }\n\n  function withdraw(uint _amount) public ownerOnly {\n    require(_amount*(1 ether)>0,\"Your either trying to overflow me or you want to withdraw 0 eth. Not cool.\");\n    require(_amount*(1 ether)<=address(this).balance*(1 ether),\"Contract balance is lower that requested amount\");\n    msg.sender.transfer(_amount);\n  }\n\n  function getContractBalance() public view ownerOnly returns (uint256) {\n    return address(this).balance;\n  }\n    \n  function changePostCreationCost(uint _newValue) public ownerOnly {\n        postCreationCost = _newValue;\n  }\n\n  function getAllSubmissions() public view returns(Submission[] memory){\n    return submissions;\n  }\n\n  function getSubmissionsLength() public view returns (uint){\n    return submissions.length;\n  }\n\n  function getSubmission(uint _submissionID) public view returns(Submission memory){\n    require(_submissionID>0 && _submissionID<=submissions.length,\"Submission doesn't exist\");\n    return submissions[_submissionID-1];\n  }\n}                                                                                                         ",
  "sourcePath": "/home/workstation/eth-projects/blog-dapp-ethereum/contracts/Blog.sol",
  "compiler": {
    "name": "solc",
    "version": "0.5.11+commit.c082d0b4.Emscripten.clang"
  },
  "schemaVersion": "3.0.14",
  "updatedAt": "2019-09-10T15:40:40.472Z",
  "devdoc": {
    "methods": {}
  },
  "userdoc": {
    "methods": {}
  }
}